{
    "_format": "hh-sol-artifact-1",
    "contractName": "TokenStaking",
    "sourceName": "contracts/TokenStaking.sol",
    "abi": [
        {
            "inputs": [
                {
                    "internalType": "address",
                    "name": "_stakingToken",
                    "type": "address"
                },
                {
                    "internalType": "address",
                    "name": "_rewardToken",
                    "type": "address"
                },
                {
                    "internalType": "address",
                    "name": "_admin",
                    "type": "address"
                }
            ],
            "stateMutability": "nonpayable",
            "type": "constructor"
        },
        {
            "anonymous": false,
            "inputs": [
                {
                    "indexed": false,
                    "internalType": "address",
                    "name": "account",
                    "type": "address"
                }
            ],
            "name": "Paused",
            "type": "event"
        },
        {
            "anonymous": false,
            "inputs": [
                {
                    "indexed": true,
                    "internalType": "address",
                    "name": "user",
                    "type": "address"
                },
                {
                    "indexed": false,
                    "internalType": "uint256",
                    "name": "reward",
                    "type": "uint256"
                }
            ],
            "name": "RewardClaimed",
            "type": "event"
        },
        {
            "anonymous": false,
            "inputs": [
                {
                    "indexed": false,
                    "internalType": "uint256",
                    "name": "newPeriod",
                    "type": "uint256"
                }
            ],
            "name": "RewardPeriodSet",
            "type": "event"
        },
        {
            "anonymous": false,
            "inputs": [
                {
                    "indexed": false,
                    "internalType": "uint256",
                    "name": "reward",
                    "type": "uint256"
                }
            ],
            "name": "RewardPeriodStarted",
            "type": "event"
        },
        {
            "anonymous": false,
            "inputs": [
                {
                    "indexed": true,
                    "internalType": "bytes32",
                    "name": "role",
                    "type": "bytes32"
                },
                {
                    "indexed": true,
                    "internalType": "bytes32",
                    "name": "previousAdminRole",
                    "type": "bytes32"
                },
                {
                    "indexed": true,
                    "internalType": "bytes32",
                    "name": "newAdminRole",
                    "type": "bytes32"
                }
            ],
            "name": "RoleAdminChanged",
            "type": "event"
        },
        {
            "anonymous": false,
            "inputs": [
                {
                    "indexed": true,
                    "internalType": "bytes32",
                    "name": "role",
                    "type": "bytes32"
                },
                {
                    "indexed": true,
                    "internalType": "address",
                    "name": "account",
                    "type": "address"
                },
                {
                    "indexed": true,
                    "internalType": "address",
                    "name": "sender",
                    "type": "address"
                }
            ],
            "name": "RoleGranted",
            "type": "event"
        },
        {
            "anonymous": false,
            "inputs": [
                {
                    "indexed": true,
                    "internalType": "bytes32",
                    "name": "role",
                    "type": "bytes32"
                },
                {
                    "indexed": true,
                    "internalType": "address",
                    "name": "account",
                    "type": "address"
                },
                {
                    "indexed": true,
                    "internalType": "address",
                    "name": "sender",
                    "type": "address"
                }
            ],
            "name": "RoleRevoked",
            "type": "event"
        },
        {
            "anonymous": false,
            "inputs": [
                {
                    "indexed": true,
                    "internalType": "address",
                    "name": "user",
                    "type": "address"
                },
                {
                    "indexed": false,
                    "internalType": "uint256",
                    "name": "amount",
                    "type": "uint256"
                }
            ],
            "name": "Staked",
            "type": "event"
        },
        {
            "anonymous": false,
            "inputs": [
                {
                    "indexed": true,
                    "internalType": "address",
                    "name": "token",
                    "type": "address"
                },
                {
                    "indexed": false,
                    "internalType": "uint256",
                    "name": "amount",
                    "type": "uint256"
                }
            ],
            "name": "TokensRecovered",
            "type": "event"
        },
        {
            "anonymous": false,
            "inputs": [
                {
                    "indexed": false,
                    "internalType": "address",
                    "name": "account",
                    "type": "address"
                }
            ],
            "name": "Unpaused",
            "type": "event"
        },
        {
            "anonymous": false,
            "inputs": [
                {
                    "indexed": true,
                    "internalType": "address",
                    "name": "user",
                    "type": "address"
                },
                {
                    "indexed": false,
                    "internalType": "uint256",
                    "name": "amount",
                    "type": "uint256"
                }
            ],
            "name": "Unstaked",
            "type": "event"
        },
        {
            "inputs": [],
            "name": "ADMIN_ROLE",
            "outputs": [
                {
                    "internalType": "bytes32",
                    "name": "",
                    "type": "bytes32"
                }
            ],
            "stateMutability": "view",
            "type": "function"
        },
        {
            "inputs": [],
            "name": "DEFAULT_ADMIN_ROLE",
            "outputs": [
                {
                    "internalType": "bytes32",
                    "name": "",
                    "type": "bytes32"
                }
            ],
            "stateMutability": "view",
            "type": "function"
        },
        {
            "inputs": [
                {
                    "internalType": "address",
                    "name": "",
                    "type": "address"
                }
            ],
            "name": "balanceOf",
            "outputs": [
                {
                    "internalType": "uint256",
                    "name": "",
                    "type": "uint256"
                }
            ],
            "stateMutability": "view",
            "type": "function"
        },
        {
            "inputs": [],
            "name": "claimReward",
            "outputs": [],
            "stateMutability": "nonpayable",
            "type": "function"
        },
        {
            "inputs": [
                {
                    "internalType": "address",
                    "name": "account",
                    "type": "address"
                }
            ],
            "name": "earned",
            "outputs": [
                {
                    "internalType": "uint256",
                    "name": "",
                    "type": "uint256"
                }
            ],
            "stateMutability": "view",
            "type": "function"
        },
        {
            "inputs": [
                {
                    "internalType": "bytes32",
                    "name": "role",
                    "type": "bytes32"
                }
            ],
            "name": "getRoleAdmin",
            "outputs": [
                {
                    "internalType": "bytes32",
                    "name": "",
                    "type": "bytes32"
                }
            ],
            "stateMutability": "view",
            "type": "function"
        },
        {
            "inputs": [
                {
                    "internalType": "bytes32",
                    "name": "role",
                    "type": "bytes32"
                },
                {
                    "internalType": "address",
                    "name": "account",
                    "type": "address"
                }
            ],
            "name": "grantRole",
            "outputs": [],
            "stateMutability": "nonpayable",
            "type": "function"
        },
        {
            "inputs": [
                {
                    "internalType": "bytes32",
                    "name": "role",
                    "type": "bytes32"
                },
                {
                    "internalType": "address",
                    "name": "account",
                    "type": "address"
                }
            ],
            "name": "hasRole",
            "outputs": [
                {
                    "internalType": "bool",
                    "name": "",
                    "type": "bool"
                }
            ],
            "stateMutability": "view",
            "type": "function"
        },
        {
            "inputs": [],
            "name": "lastTimeRewardApplicable",
            "outputs": [
                {
                    "internalType": "uint256",
                    "name": "",
                    "type": "uint256"
                }
            ],
            "stateMutability": "view",
            "type": "function"
        },
        {
            "inputs": [],
            "name": "lastUpdateTime",
            "outputs": [
                {
                    "internalType": "uint256",
                    "name": "",
                    "type": "uint256"
                }
            ],
            "stateMutability": "view",
            "type": "function"
        },
        {
            "inputs": [],
            "name": "pause",
            "outputs": [],
            "stateMutability": "nonpayable",
            "type": "function"
        },
        {
            "inputs": [],
            "name": "paused",
            "outputs": [
                {
                    "internalType": "bool",
                    "name": "",
                    "type": "bool"
                }
            ],
            "stateMutability": "view",
            "type": "function"
        },
        {
            "inputs": [
                {
                    "internalType": "address",
                    "name": "",
                    "type": "address"
                }
            ],
            "name": "pendingRewards",
            "outputs": [
                {
                    "internalType": "uint256",
                    "name": "",
                    "type": "uint256"
                }
            ],
            "stateMutability": "view",
            "type": "function"
        },
        {
            "inputs": [],
            "name": "periodFinish",
            "outputs": [
                {
                    "internalType": "uint256",
                    "name": "",
                    "type": "uint256"
                }
            ],
            "stateMutability": "view",
            "type": "function"
        },
        {
            "inputs": [
                {
                    "internalType": "address",
                    "name": "tokenAddress",
                    "type": "address"
                },
                {
                    "internalType": "uint256",
                    "name": "amount",
                    "type": "uint256"
                }
            ],
            "name": "recoverTokens",
            "outputs": [],
            "stateMutability": "nonpayable",
            "type": "function"
        },
        {
            "inputs": [
                {
                    "internalType": "bytes32",
                    "name": "role",
                    "type": "bytes32"
                },
                {
                    "internalType": "address",
                    "name": "account",
                    "type": "address"
                }
            ],
            "name": "renounceRole",
            "outputs": [],
            "stateMutability": "nonpayable",
            "type": "function"
        },
        {
            "inputs": [
                {
                    "internalType": "bytes32",
                    "name": "role",
                    "type": "bytes32"
                },
                {
                    "internalType": "address",
                    "name": "account",
                    "type": "address"
                }
            ],
            "name": "revokeRole",
            "outputs": [],
            "stateMutability": "nonpayable",
            "type": "function"
        },
        {
            "inputs": [],
            "name": "rewardPerToken",
            "outputs": [
                {
                    "internalType": "uint256",
                    "name": "",
                    "type": "uint256"
                }
            ],
            "stateMutability": "view",
            "type": "function"
        },
        {
            "inputs": [],
            "name": "rewardPerTokenStored",
            "outputs": [
                {
                    "internalType": "uint256",
                    "name": "",
                    "type": "uint256"
                }
            ],
            "stateMutability": "view",
            "type": "function"
        },
        {
            "inputs": [],
            "name": "rewardPeriod",
            "outputs": [
                {
                    "internalType": "uint256",
                    "name": "",
                    "type": "uint256"
                }
            ],
            "stateMutability": "view",
            "type": "function"
        },
        {
            "inputs": [],
            "name": "rewardRate",
            "outputs": [
                {
                    "internalType": "uint256",
                    "name": "",
                    "type": "uint256"
                }
            ],
            "stateMutability": "view",
            "type": "function"
        },
        {
            "inputs": [],
            "name": "rewardToken",
            "outputs": [
                {
                    "internalType": "contract IERC20",
                    "name": "",
                    "type": "address"
                }
            ],
            "stateMutability": "view",
            "type": "function"
        },
        {
            "inputs": [
                {
                    "internalType": "uint256",
                    "name": "period",
                    "type": "uint256"
                }
            ],
            "name": "setRewardPeriod",
            "outputs": [],
            "stateMutability": "nonpayable",
            "type": "function"
        },
        {
            "inputs": [
                {
                    "internalType": "uint256",
                    "name": "amount",
                    "type": "uint256"
                }
            ],
            "name": "stake",
            "outputs": [],
            "stateMutability": "nonpayable",
            "type": "function"
        },
        {
            "inputs": [],
            "name": "stakingToken",
            "outputs": [
                {
                    "internalType": "contract IERC20",
                    "name": "",
                    "type": "address"
                }
            ],
            "stateMutability": "view",
            "type": "function"
        },
        {
            "inputs": [
                {
                    "internalType": "uint256",
                    "name": "reward",
                    "type": "uint256"
                }
            ],
            "name": "startRewardPeriod",
            "outputs": [],
            "stateMutability": "nonpayable",
            "type": "function"
        },
        {
            "inputs": [
                {
                    "internalType": "bytes4",
                    "name": "interfaceId",
                    "type": "bytes4"
                }
            ],
            "name": "supportsInterface",
            "outputs": [
                {
                    "internalType": "bool",
                    "name": "",
                    "type": "bool"
                }
            ],
            "stateMutability": "view",
            "type": "function"
        },
        {
            "inputs": [],
            "name": "totalRewardForPeriod",
            "outputs": [
                {
                    "internalType": "uint256",
                    "name": "",
                    "type": "uint256"
                }
            ],
            "stateMutability": "view",
            "type": "function"
        },
        {
            "inputs": [],
            "name": "totalSupply",
            "outputs": [
                {
                    "internalType": "uint256",
                    "name": "",
                    "type": "uint256"
                }
            ],
            "stateMutability": "view",
            "type": "function"
        },
        {
            "inputs": [],
            "name": "unpause",
            "outputs": [],
            "stateMutability": "nonpayable",
            "type": "function"
        },
        {
            "inputs": [
                {
                    "internalType": "uint256",
                    "name": "amount",
                    "type": "uint256"
                }
            ],
            "name": "unstake",
            "outputs": [],
            "stateMutability": "nonpayable",
            "type": "function"
        },
        {
            "inputs": [],
            "name": "unstakeAndClaim",
            "outputs": [],
            "stateMutability": "nonpayable",
            "type": "function"
        },
        {
            "inputs": [
                {
                    "internalType": "address",
                    "name": "",
                    "type": "address"
                }
            ],
            "name": "userRewardPerTokenPaid",
            "outputs": [
                {
                    "internalType": "uint256",
                    "name": "",
                    "type": "uint256"
                }
            ],
            "stateMutability": "view",
            "type": "function"
        }
    ],
    "bytecode": "0x60806040523480156200001157600080fd5b5060405162003a9938038062003a998339818101604052810190620000379190620003de565b60016000819055506000600260006101000a81548160ff021916908315150217905550600073ffffffffffffffffffffffffffffffffffffffff168373ffffffffffffffffffffffffffffffffffffffff1603620000cc576040517f08c379a0000000000000000000000000000000000000000000000000000000008152600401620000c3906200049b565b60405180910390fd5b600073ffffffffffffffffffffffffffffffffffffffff168273ffffffffffffffffffffffffffffffffffffffff16036200013e576040517f08c379a000000000000000000000000000000000000000000000000000000000815260040162000135906200050d565b60405180910390fd5b82600260016101000a81548173ffffffffffffffffffffffffffffffffffffffff021916908373ffffffffffffffffffffffffffffffffffffffff16021790555081600360006101000a81548173ffffffffffffffffffffffffffffffffffffffff021916908373ffffffffffffffffffffffffffffffffffffffff160217905550620001d56000801b826200021060201b60201c565b620002077fa49807205ce4d355092ef5a8a18f56e8913cf4a201fbe287825b095693c21775826200021060201b60201c565b5050506200052f565b6200022282826200030160201b60201c565b620002fd57600180600084815260200190815260200160002060000160008373ffffffffffffffffffffffffffffffffffffffff1673ffffffffffffffffffffffffffffffffffffffff16815260200190815260200160002060006101000a81548160ff021916908315150217905550620002a26200036c60201b60201c565b73ffffffffffffffffffffffffffffffffffffffff168173ffffffffffffffffffffffffffffffffffffffff16837f2f8788117e7eff1d82e926ec794901d17c78024a50270940304540a733656f0d60405160405180910390a45b5050565b60006001600084815260200190815260200160002060000160008373ffffffffffffffffffffffffffffffffffffffff1673ffffffffffffffffffffffffffffffffffffffff16815260200190815260200160002060009054906101000a900460ff16905092915050565b600033905090565b600080fd5b600073ffffffffffffffffffffffffffffffffffffffff82169050919050565b6000620003a68262000379565b9050919050565b620003b88162000399565b8114620003c457600080fd5b50565b600081519050620003d881620003ad565b92915050565b600080600060608486031215620003fa57620003f962000374565b5b60006200040a86828701620003c7565b93505060206200041d86828701620003c7565b92505060406200043086828701620003c7565b9150509250925092565b600082825260208201905092915050565b7f496e76616c6964207374616b696e6720746f6b656e0000000000000000000000600082015250565b6000620004836015836200043a565b915062000490826200044b565b602082019050919050565b60006020820190508181036000830152620004b68162000474565b9050919050565b7f496e76616c69642072657761726420746f6b656e000000000000000000000000600082015250565b6000620004f56014836200043a565b91506200050282620004bd565b602082019050919050565b600060208201905081810360008301526200052881620004e6565b9050919050565b61355a806200053f6000396000f3fe608060405234801561001057600080fd5b50600436106101fa5760003560e01c806375b238fc1161011a578063b88a802f116100ad578063df136d651161007c578063df136d6514610579578063e88dc5b714610597578063ebe2b12b146105b5578063f7c618c1146105d3578063f985021a146105f1576101fa565b8063b88a802f14610517578063c8f33c9114610521578063cd3daf9d1461053f578063d547741f1461055d576101fa565b80638b876347116100e95780638b8763471461047d57806391d14854146104ad578063a217fddf146104dd578063a694fc3a146104fb576101fa565b806375b238fc146104195780637b0a47ee1461043757806380faa57d146104555780638456cb5914610473576101fa565b806331d7a26211610192578063592cce5611610161578063592cce56146103915780635c975abb146103ad57806370a08231146103cb57806372f702f3146103fb576101fa565b806331d7a2621461031d57806336568abe1461034d5780633f4ba83a1461036957806345cac6b314610373576101fa565b8063248a9ca3116101ce578063248a9ca3146102995780632819a630146102c95780632e17de78146102e55780632f2ff15d14610301576101fa565b80628cc262146101ff57806301ffc9a71461022f578063069c9fae1461025f57806318160ddd1461027b575b600080fd5b610219600480360381019061021491906125c9565b6105fb565b604051610226919061260f565b60405180910390f35b61024960048036038101906102449190612682565b6106fd565b60405161025691906126ca565b60405180910390f35b61027960048036038101906102749190612711565b610777565b005b61028361093f565b604051610290919061260f565b60405180910390f35b6102b360048036038101906102ae9190612787565b610945565b6040516102c091906127c3565b60405180910390f35b6102e360048036038101906102de91906127de565b610965565b005b6102ff60048036038101906102fa91906127de565b610a59565b005b61031b6004803603810190610316919061280b565b610d28565b005b610337600480360381019061033291906125c9565b610d49565b604051610344919061260f565b60405180910390f35b6103676004803603810190610362919061280b565b610d61565b005b610371610de4565b005b61037b610e19565b604051610388919061260f565b60405180910390f35b6103ab60048036038101906103a691906127de565b610e30565b005b6103b56110c6565b6040516103c291906126ca565b60405180910390f35b6103e560048036038101906103e091906125c9565b6110dd565b6040516103f2919061260f565b60405180910390f35b6104036110f5565b60405161041091906128aa565b60405180910390f35b61042161111b565b60405161042e91906127c3565b60405180910390f35b61043f61113f565b60405161044c919061260f565b60405180910390f35b61045d611145565b60405161046a919061260f565b60405180910390f35b61047b61115f565b005b610497600480360381019061049291906125c9565b611194565b6040516104a4919061260f565b60405180910390f35b6104c760048036038101906104c2919061280b565b6111ac565b6040516104d491906126ca565b60405180910390f35b6104e5611217565b6040516104f291906127c3565b60405180910390f35b610515600480360381019061051091906127de565b61121e565b005b61051f61146d565b005b61052961169b565b604051610536919061260f565b60405180910390f35b6105476116a1565b604051610554919061260f565b60405180910390f35b6105776004803603810190610572919061280b565b61170b565b005b61058161172c565b60405161058e919061260f565b60405180910390f35b61059f611732565b6040516105ac919061260f565b60405180910390f35b6105bd611738565b6040516105ca919061260f565b60405180910390f35b6105db61173e565b6040516105e891906128aa565b60405180910390f35b6105f9611764565b005b6000600c60008373ffffffffffffffffffffffffffffffffffffffff1673ffffffffffffffffffffffffffffffffffffffff16815260200190815260200160002054670de0b6b3a7640000600b60008573ffffffffffffffffffffffffffffffffffffffff1673ffffffffffffffffffffffffffffffffffffffff1681526020019081526020016000205461068e6116a1565b61069891906128f4565b600a60008673ffffffffffffffffffffffffffffffffffffffff1673ffffffffffffffffffffffffffffffffffffffff168152602001908152602001600020546106e29190612928565b6106ec9190612999565b6106f691906129ca565b9050919050565b60007f7965db0b000000000000000000000000000000000000000000000000000000007bffffffffffffffffffffffffffffffffffffffffffffffffffffffff1916827bffffffffffffffffffffffffffffffffffffffffffffffffffffffff19161480610770575061076f82611ada565b5b9050919050565b7fa49807205ce4d355092ef5a8a18f56e8913cf4a201fbe287825b095693c217756107a181611b44565b600260019054906101000a900473ffffffffffffffffffffffffffffffffffffffff1673ffffffffffffffffffffffffffffffffffffffff168373ffffffffffffffffffffffffffffffffffffffff1603610831576040517f08c379a000000000000000000000000000000000000000000000000000000000815260040161082890612a5b565b60405180910390fd5b600360009054906101000a900473ffffffffffffffffffffffffffffffffffffffff1673ffffffffffffffffffffffffffffffffffffffff168373ffffffffffffffffffffffffffffffffffffffff16036108c1576040517f08c379a00000000000000000000000000000000000000000000000000000000081526004016108b890612ac7565b60405180910390fd5b6108ec33838573ffffffffffffffffffffffffffffffffffffffff16611b589092919063ffffffff16565b8273ffffffffffffffffffffffffffffffffffffffff167f46d2e6e71fc567877b817ff3d940571f989d4ee4d40f2b70806d36e738feef6f83604051610932919061260f565b60405180910390a2505050565b60095481565b600060016000838152602001908152602001600020600101549050919050565b7fa49807205ce4d355092ef5a8a18f56e8913cf4a201fbe287825b095693c2177561098f81611b44565b6006544210156109d4576040517f08c379a00000000000000000000000000000000000000000000000000000000081526004016109cb90612b33565b60405180910390fd5b60008211610a17576040517f08c379a0000000000000000000000000000000000000000000000000000000008152600401610a0e90612b9f565b60405180910390fd5b816005819055507fae2d3978d18d478ac18076b9b2d699349786b12f5ada304764ecc54720912a0682604051610a4d919061260f565b60405180910390a15050565b610a61611bde565b610a69611c2d565b33610a726116a1565b600881905550610a80611145565b600781905550600073ffffffffffffffffffffffffffffffffffffffff168173ffffffffffffffffffffffffffffffffffffffff1614610b4d57610ac3816105fb565b600c60008373ffffffffffffffffffffffffffffffffffffffff1673ffffffffffffffffffffffffffffffffffffffff16815260200190815260200160002081905550600854600b60008373ffffffffffffffffffffffffffffffffffffffff1673ffffffffffffffffffffffffffffffffffffffff168152602001908152602001600020819055505b60008211610b90576040517f08c379a0000000000000000000000000000000000000000000000000000000008152600401610b8790612c0b565b60405180910390fd5b81600a60003373ffffffffffffffffffffffffffffffffffffffff1673ffffffffffffffffffffffffffffffffffffffff168152602001908152602001600020541015610c12576040517f08c379a0000000000000000000000000000000000000000000000000000000008152600401610c0990612c77565b60405180910390fd5b8160096000828254610c2491906128f4565b9250508190555081600a60003373ffffffffffffffffffffffffffffffffffffffff1673ffffffffffffffffffffffffffffffffffffffff1681526020019081526020016000206000828254610c7a91906128f4565b92505081905550610cce3383600260019054906101000a900473ffffffffffffffffffffffffffffffffffffffff1673ffffffffffffffffffffffffffffffffffffffff16611b589092919063ffffffff16565b3373ffffffffffffffffffffffffffffffffffffffff167f0f5bb82176feb1b5e747e28471aa92156a04d9f3ab9f45f28e2d704232b93f7583604051610d14919061260f565b60405180910390a250610d25611c77565b50565b610d3182610945565b610d3a81611b44565b610d448383611c81565b505050565b600c6020528060005260406000206000915090505481565b610d69611d61565b73ffffffffffffffffffffffffffffffffffffffff168173ffffffffffffffffffffffffffffffffffffffff1614610dd6576040517f08c379a0000000000000000000000000000000000000000000000000000000008152600401610dcd90612d09565b60405180910390fd5b610de08282611d69565b5050565b7fa49807205ce4d355092ef5a8a18f56e8913cf4a201fbe287825b095693c21775610e0e81611b44565b610e16611e4b565b50565b6000600554600454610e2b9190612928565b905090565b7fa49807205ce4d355092ef5a8a18f56e8913cf4a201fbe287825b095693c21775610e5a81611b44565b6000610e646116a1565b600881905550610e72611145565b600781905550600073ffffffffffffffffffffffffffffffffffffffff168173ffffffffffffffffffffffffffffffffffffffff1614610f3f57610eb5816105fb565b600c60008373ffffffffffffffffffffffffffffffffffffffff1673ffffffffffffffffffffffffffffffffffffffff16815260200190815260200160002081905550600854600b60008373ffffffffffffffffffffffffffffffffffffffff1673ffffffffffffffffffffffffffffffffffffffff168152602001908152602001600020819055505b600654421015610f84576040517f08c379a0000000000000000000000000000000000000000000000000000000008152600401610f7b90612d75565b60405180910390fd5b600060055411610fc9576040517f08c379a0000000000000000000000000000000000000000000000000000000008152600401610fc090612de1565b60405180910390fd5b6000831161100c576040517f08c379a000000000000000000000000000000000000000000000000000000000815260040161100390612e4d565b60405180910390fd5b6005548361101a9190612999565b600481905550426007819055506005544261103591906129ca565b60068190555061108a333085600360009054906101000a900473ffffffffffffffffffffffffffffffffffffffff1673ffffffffffffffffffffffffffffffffffffffff16611eae909392919063ffffffff16565b7f986dbf655b507fd78f1fec768961f56d96a66ad3069c4fb8667db83a45cb6350836040516110b9919061260f565b60405180910390a1505050565b6000600260009054906101000a900460ff16905090565b600a6020528060005260406000206000915090505481565b600260019054906101000a900473ffffffffffffffffffffffffffffffffffffffff1681565b7fa49807205ce4d355092ef5a8a18f56e8913cf4a201fbe287825b095693c2177581565b60045481565b600060065442106111585760065461115a565b425b905090565b7fa49807205ce4d355092ef5a8a18f56e8913cf4a201fbe287825b095693c2177561118981611b44565b611191611f37565b50565b600b6020528060005260406000206000915090505481565b60006001600084815260200190815260200160002060000160008373ffffffffffffffffffffffffffffffffffffffff1673ffffffffffffffffffffffffffffffffffffffff16815260200190815260200160002060009054906101000a900460ff16905092915050565b6000801b81565b611226611bde565b61122e611c2d565b336112376116a1565b600881905550611245611145565b600781905550600073ffffffffffffffffffffffffffffffffffffffff168173ffffffffffffffffffffffffffffffffffffffff161461131257611288816105fb565b600c60008373ffffffffffffffffffffffffffffffffffffffff1673ffffffffffffffffffffffffffffffffffffffff16815260200190815260200160002081905550600854600b60008373ffffffffffffffffffffffffffffffffffffffff1673ffffffffffffffffffffffffffffffffffffffff168152602001908152602001600020819055505b60008211611355576040517f08c379a000000000000000000000000000000000000000000000000000000000815260040161134c90612c0b565b60405180910390fd5b816009600082825461136791906129ca565b9250508190555081600a60003373ffffffffffffffffffffffffffffffffffffffff1673ffffffffffffffffffffffffffffffffffffffff16815260200190815260200160002060008282546113bd91906129ca565b92505081905550611413333084600260019054906101000a900473ffffffffffffffffffffffffffffffffffffffff1673ffffffffffffffffffffffffffffffffffffffff16611eae909392919063ffffffff16565b3373ffffffffffffffffffffffffffffffffffffffff167f9e71bc8eea02a63969f509818f2dafb9254532904319f9dbda79b67bd34a5f3d83604051611459919061260f565b60405180910390a25061146a611c77565b50565b611475611bde565b61147d611c2d565b336114866116a1565b600881905550611494611145565b600781905550600073ffffffffffffffffffffffffffffffffffffffff168173ffffffffffffffffffffffffffffffffffffffff1614611561576114d7816105fb565b600c60008373ffffffffffffffffffffffffffffffffffffffff1673ffffffffffffffffffffffffffffffffffffffff16815260200190815260200160002081905550600854600b60008373ffffffffffffffffffffffffffffffffffffffff1673ffffffffffffffffffffffffffffffffffffffff168152602001908152602001600020819055505b6000600c60003373ffffffffffffffffffffffffffffffffffffffff1673ffffffffffffffffffffffffffffffffffffffff168152602001908152602001600020549050600081111561168f576000600c60003373ffffffffffffffffffffffffffffffffffffffff1673ffffffffffffffffffffffffffffffffffffffff168152602001908152602001600020819055506116403382600360009054906101000a900473ffffffffffffffffffffffffffffffffffffffff1673ffffffffffffffffffffffffffffffffffffffff16611b589092919063ffffffff16565b3373ffffffffffffffffffffffffffffffffffffffff167f106f923f993c2149d49b4255ff723acafa1f2d94393f561d3eda32ae348f724182604051611686919061260f565b60405180910390a25b5050611699611c77565b565b60075481565b600080600954036116b6576008549050611708565b600954670de0b6b3a76400006004546007546116d0611145565b6116da91906128f4565b6116e49190612928565b6116ee9190612928565b6116f89190612999565b60085461170591906129ca565b90505b90565b61171482610945565b61171d81611b44565b6117278383611d69565b505050565b60085481565b60055481565b60065481565b600360009054906101000a900473ffffffffffffffffffffffffffffffffffffffff1681565b61176c611bde565b611774611c2d565b3361177d6116a1565b60088190555061178b611145565b600781905550600073ffffffffffffffffffffffffffffffffffffffff168173ffffffffffffffffffffffffffffffffffffffff1614611858576117ce816105fb565b600c60008373ffffffffffffffffffffffffffffffffffffffff1673ffffffffffffffffffffffffffffffffffffffff16815260200190815260200160002081905550600854600b60008373ffffffffffffffffffffffffffffffffffffffff1673ffffffffffffffffffffffffffffffffffffffff168152602001908152602001600020819055505b6000600a60003373ffffffffffffffffffffffffffffffffffffffff1673ffffffffffffffffffffffffffffffffffffffff1681526020019081526020016000205490506000600c60003373ffffffffffffffffffffffffffffffffffffffff1673ffffffffffffffffffffffffffffffffffffffff16815260200190815260200160002054905060008211156119e35781600960008282546118fb91906128f4565b925050819055506000600a60003373ffffffffffffffffffffffffffffffffffffffff1673ffffffffffffffffffffffffffffffffffffffff168152602001908152602001600020819055506119943383600260019054906101000a900473ffffffffffffffffffffffffffffffffffffffff1673ffffffffffffffffffffffffffffffffffffffff16611b589092919063ffffffff16565b3373ffffffffffffffffffffffffffffffffffffffff167f0f5bb82176feb1b5e747e28471aa92156a04d9f3ab9f45f28e2d704232b93f75836040516119da919061260f565b60405180910390a25b6000811115611acd576000600c60003373ffffffffffffffffffffffffffffffffffffffff1673ffffffffffffffffffffffffffffffffffffffff16815260200190815260200160002081905550611a7e3382600360009054906101000a900473ffffffffffffffffffffffffffffffffffffffff1673ffffffffffffffffffffffffffffffffffffffff16611b589092919063ffffffff16565b3373ffffffffffffffffffffffffffffffffffffffff167f106f923f993c2149d49b4255ff723acafa1f2d94393f561d3eda32ae348f724182604051611ac4919061260f565b60405180910390a25b505050611ad8611c77565b565b60007f01ffc9a7000000000000000000000000000000000000000000000000000000007bffffffffffffffffffffffffffffffffffffffffffffffffffffffff1916827bffffffffffffffffffffffffffffffffffffffffffffffffffffffff1916149050919050565b611b5581611b50611d61565b611f9a565b50565b611bd98363a9059cbb60e01b8484604051602401611b77929190612e7c565b604051602081830303815290604052907bffffffffffffffffffffffffffffffffffffffffffffffffffffffff19166020820180517bffffffffffffffffffffffffffffffffffffffffffffffffffffffff838183161783525050505061201f565b505050565b600260005403611c23576040517f08c379a0000000000000000000000000000000000000000000000000000000008152600401611c1a90612ef1565b60405180910390fd5b6002600081905550565b611c356110c6565b15611c75576040517f08c379a0000000000000000000000000000000000000000000000000000000008152600401611c6c90612f5d565b60405180910390fd5b565b6001600081905550565b611c8b82826111ac565b611d5d57600180600084815260200190815260200160002060000160008373ffffffffffffffffffffffffffffffffffffffff1673ffffffffffffffffffffffffffffffffffffffff16815260200190815260200160002060006101000a81548160ff021916908315150217905550611d02611d61565b73ffffffffffffffffffffffffffffffffffffffff168173ffffffffffffffffffffffffffffffffffffffff16837f2f8788117e7eff1d82e926ec794901d17c78024a50270940304540a733656f0d60405160405180910390a45b5050565b600033905090565b611d7382826111ac565b15611e475760006001600084815260200190815260200160002060000160008373ffffffffffffffffffffffffffffffffffffffff1673ffffffffffffffffffffffffffffffffffffffff16815260200190815260200160002060006101000a81548160ff021916908315150217905550611dec611d61565b73ffffffffffffffffffffffffffffffffffffffff168173ffffffffffffffffffffffffffffffffffffffff16837ff6391f5c32d9c69d2a47ea670b442974b53935d1edc7fd64eb21e047a839171b60405160405180910390a45b5050565b611e536120e7565b6000600260006101000a81548160ff0219169083151502179055507f5db9ee0a495bf2e6ff9c91a7834c1ba4fdd244a5e8aa4e537bd38aeae4b073aa611e97611d61565b604051611ea49190612f7d565b60405180910390a1565b611f31846323b872dd60e01b858585604051602401611ecf93929190612f98565b604051602081830303815290604052907bffffffffffffffffffffffffffffffffffffffffffffffffffffffff19166020820180517bffffffffffffffffffffffffffffffffffffffffffffffffffffffff838183161783525050505061201f565b50505050565b611f3f611c2d565b6001600260006101000a81548160ff0219169083151502179055507f62e78cea01bee320cd4e420270b5ea74000d11b0c9f74754ebdbfc544b05a258611f83611d61565b604051611f909190612f7d565b60405180910390a1565b611fa482826111ac565b61201b57611fb181612130565b611fbf8360001c602061215d565b604051602001611fd09291906130d8565b6040516020818303038152906040526040517f08c379a0000000000000000000000000000000000000000000000000000000008152600401612012919061315c565b60405180910390fd5b5050565b6000612081826040518060400160405280602081526020017f5361666545524332303a206c6f772d6c6576656c2063616c6c206661696c65648152508573ffffffffffffffffffffffffffffffffffffffff166123999092919063ffffffff16565b90506000815114806120a35750808060200190518101906120a291906131aa565b5b6120e2576040517f08c379a00000000000000000000000000000000000000000000000000000000081526004016120d990613249565b60405180910390fd5b505050565b6120ef6110c6565b61212e576040517f08c379a0000000000000000000000000000000000000000000000000000000008152600401612125906132b5565b60405180910390fd5b565b60606121568273ffffffffffffffffffffffffffffffffffffffff16601460ff1661215d565b9050919050565b6060600060028360026121709190612928565b61217a91906129ca565b67ffffffffffffffff811115612193576121926132d5565b5b6040519080825280601f01601f1916602001820160405280156121c55781602001600182028036833780820191505090505b5090507f3000000000000000000000000000000000000000000000000000000000000000816000815181106121fd576121fc613304565b5b60200101907effffffffffffffffffffffffffffffffffffffffffffffffffffffffffffff1916908160001a9053507f78000000000000000000000000000000000000000000000000000000000000008160018151811061226157612260613304565b5b60200101907effffffffffffffffffffffffffffffffffffffffffffffffffffffffffffff1916908160001a905350600060018460026122a19190612928565b6122ab91906129ca565b90505b600181111561234b577f3031323334353637383961626364656600000000000000000000000000000000600f8616601081106122ed576122ec613304565b5b1a60f81b82828151811061230457612303613304565b5b60200101907effffffffffffffffffffffffffffffffffffffffffffffffffffffffffffff1916908160001a905350600485901c94508061234490613333565b90506122ae565b506000841461238f576040517f08c379a0000000000000000000000000000000000000000000000000000000008152600401612386906133a8565b60405180910390fd5b8091505092915050565b60606123a884846000856123b1565b90509392505050565b6060824710156123f6576040517f08c379a00000000000000000000000000000000000000000000000000000000081526004016123ed9061343a565b60405180910390fd5b6000808673ffffffffffffffffffffffffffffffffffffffff16858760405161241f91906134a1565b60006040518083038185875af1925050503d806000811461245c576040519150601f19603f3d011682016040523d82523d6000602084013e612461565b606091505b50915091506124728783838761247e565b92505050949350505050565b606083156124e05760008351036124d857612498856124f3565b6124d7576040517f08c379a00000000000000000000000000000000000000000000000000000000081526004016124ce90613504565b60405180910390fd5b5b8290506124eb565b6124ea8383612516565b5b949350505050565b6000808273ffffffffffffffffffffffffffffffffffffffff163b119050919050565b6000825111156125295781518083602001fd5b806040517f08c379a000000000000000000000000000000000000000000000000000000000815260040161255d919061315c565b60405180910390fd5b600080fd5b600073ffffffffffffffffffffffffffffffffffffffff82169050919050565b60006125968261256b565b9050919050565b6125a68161258b565b81146125b157600080fd5b50565b6000813590506125c38161259d565b92915050565b6000602082840312156125df576125de612566565b5b60006125ed848285016125b4565b91505092915050565b6000819050919050565b612609816125f6565b82525050565b60006020820190506126246000830184612600565b92915050565b60007fffffffff0000000000000000000000000000000000000000000000000000000082169050919050565b61265f8161262a565b811461266a57600080fd5b50565b60008135905061267c81612656565b92915050565b60006020828403121561269857612697612566565b5b60006126a68482850161266d565b91505092915050565b60008115159050919050565b6126c4816126af565b82525050565b60006020820190506126df60008301846126bb565b92915050565b6126ee816125f6565b81146126f957600080fd5b50565b60008135905061270b816126e5565b92915050565b6000806040838503121561272857612727612566565b5b6000612736858286016125b4565b9250506020612747858286016126fc565b9150509250929050565b6000819050919050565b61276481612751565b811461276f57600080fd5b50565b6000813590506127818161275b565b92915050565b60006020828403121561279d5761279c612566565b5b60006127ab84828501612772565b91505092915050565b6127bd81612751565b82525050565b60006020820190506127d860008301846127b4565b92915050565b6000602082840312156127f4576127f3612566565b5b6000612802848285016126fc565b91505092915050565b6000806040838503121561282257612821612566565b5b600061283085828601612772565b9250506020612841858286016125b4565b9150509250929050565b6000819050919050565b600061287061286b6128668461256b565b61284b565b61256b565b9050919050565b600061288282612855565b9050919050565b600061289482612877565b9050919050565b6128a481612889565b82525050565b60006020820190506128bf600083018461289b565b92915050565b7f4e487b7100000000000000000000000000000000000000000000000000000000600052601160045260246000fd5b60006128ff826125f6565b915061290a836125f6565b9250828203905081811115612922576129216128c5565b5b92915050565b6000612933826125f6565b915061293e836125f6565b925082820261294c816125f6565b91508282048414831517612963576129626128c5565b5b5092915050565b7f4e487b7100000000000000000000000000000000000000000000000000000000600052601260045260246000fd5b60006129a4826125f6565b91506129af836125f6565b9250826129bf576129be61296a565b5b828204905092915050565b60006129d5826125f6565b91506129e0836125f6565b92508282019050808211156129f8576129f76128c5565b5b92915050565b600082825260208201905092915050565b7f43616e6e6f74207265636f766572207374616b696e6720746f6b656e00000000600082015250565b6000612a45601c836129fe565b9150612a5082612a0f565b602082019050919050565b60006020820190508181036000830152612a7481612a38565b9050919050565b7f43616e6e6f74207265636f7665722072657761726420746f6b656e0000000000600082015250565b6000612ab1601b836129fe565b9150612abc82612a7b565b602082019050919050565b60006020820190508181036000830152612ae081612aa4565b9050919050565b7f43757272656e7420706572696f64207374696c6c206163746976650000000000600082015250565b6000612b1d601b836129fe565b9150612b2882612ae7565b602082019050919050565b60006020820190508181036000830152612b4c81612b10565b9050919050565b7f506572696f64206d7573742062652067726561746572207468616e2030000000600082015250565b6000612b89601d836129fe565b9150612b9482612b53565b602082019050919050565b60006020820190508181036000830152612bb881612b7c565b9050919050565b7f416d6f756e74206d7573742062652067726561746572207468616e2030000000600082015250565b6000612bf5601d836129fe565b9150612c0082612bbf565b602082019050919050565b60006020820190508181036000830152612c2481612be8565b9050919050565b7f496e73756666696369656e74207374616b65642062616c616e63650000000000600082015250565b6000612c61601b836129fe565b9150612c6c82612c2b565b602082019050919050565b60006020820190508181036000830152612c9081612c54565b9050919050565b7f416363657373436f6e74726f6c3a2063616e206f6e6c792072656e6f756e636560008201527f20726f6c657320666f722073656c660000000000000000000000000000000000602082015250565b6000612cf3602f836129fe565b9150612cfe82612c97565b604082019050919050565b60006020820190508181036000830152612d2281612ce6565b9050919050565b7f50726576696f757320706572696f64206e6f742066696e697368656400000000600082015250565b6000612d5f601c836129fe565b9150612d6a82612d29565b602082019050919050565b60006020820190508181036000830152612d8e81612d52565b9050919050565b7f52657761726420706572696f64206e6f74207365740000000000000000000000600082015250565b6000612dcb6015836129fe565b9150612dd682612d95565b602082019050919050565b60006020820190508181036000830152612dfa81612dbe565b9050919050565b7f526577617264206d7573742062652067726561746572207468616e2030000000600082015250565b6000612e37601d836129fe565b9150612e4282612e01565b602082019050919050565b60006020820190508181036000830152612e6681612e2a565b9050919050565b612e768161258b565b82525050565b6000604082019050612e916000830185612e6d565b612e9e6020830184612600565b9392505050565b7f5265656e7472616e637947756172643a207265656e7472616e742063616c6c00600082015250565b6000612edb601f836129fe565b9150612ee682612ea5565b602082019050919050565b60006020820190508181036000830152612f0a81612ece565b9050919050565b7f5061757361626c653a2070617573656400000000000000000000000000000000600082015250565b6000612f476010836129fe565b9150612f5282612f11565b602082019050919050565b60006020820190508181036000830152612f7681612f3a565b9050919050565b6000602082019050612f926000830184612e6d565b92915050565b6000606082019050612fad6000830186612e6d565b612fba6020830185612e6d565b612fc76040830184612600565b949350505050565b600081905092915050565b7f416363657373436f6e74726f6c3a206163636f756e7420000000000000000000600082015250565b6000613010601783612fcf565b915061301b82612fda565b601782019050919050565b600081519050919050565b60005b8381101561304f578082015181840152602081019050613034565b60008484015250505050565b600061306682613026565b6130708185612fcf565b9350613080818560208601613031565b80840191505092915050565b7f206973206d697373696e6720726f6c6520000000000000000000000000000000600082015250565b60006130c2601183612fcf565b91506130cd8261308c565b601182019050919050565b60006130e382613003565b91506130ef828561305b565b91506130fa826130b5565b9150613106828461305b565b91508190509392505050565b6000601f19601f8301169050919050565b600061312e82613026565b61313881856129fe565b9350613148818560208601613031565b61315181613112565b840191505092915050565b600060208201905081810360008301526131768184613123565b905092915050565b613187816126af565b811461319257600080fd5b50565b6000815190506131a48161317e565b92915050565b6000602082840312156131c0576131bf612566565b5b60006131ce84828501613195565b91505092915050565b7f5361666545524332303a204552433230206f7065726174696f6e20646964206e60008201527f6f74207375636365656400000000000000000000000000000000000000000000602082015250565b6000613233602a836129fe565b915061323e826131d7565b604082019050919050565b6000602082019050818103600083015261326281613226565b9050919050565b7f5061757361626c653a206e6f7420706175736564000000000000000000000000600082015250565b600061329f6014836129fe565b91506132aa82613269565b602082019050919050565b600060208201905081810360008301526132ce81613292565b9050919050565b7f4e487b7100000000000000000000000000000000000000000000000000000000600052604160045260246000fd5b7f4e487b7100000000000000000000000000000000000000000000000000000000600052603260045260246000fd5b600061333e826125f6565b915060008203613351576133506128c5565b5b600182039050919050565b7f537472696e67733a20686578206c656e67746820696e73756666696369656e74600082015250565b60006133926020836129fe565b915061339d8261335c565b602082019050919050565b600060208201905081810360008301526133c181613385565b9050919050565b7f416464726573733a20696e73756666696369656e742062616c616e636520666f60008201527f722063616c6c0000000000000000000000000000000000000000000000000000602082015250565b60006134246026836129fe565b915061342f826133c8565b604082019050919050565b6000602082019050818103600083015261345381613417565b9050919050565b600081519050919050565b600081905092915050565b600061347b8261345a565b6134858185613465565b9350613495818560208601613031565b80840191505092915050565b60006134ad8284613470565b915081905092915050565b7f416464726573733a2063616c6c20746f206e6f6e2d636f6e7472616374000000600082015250565b60006134ee601d836129fe565b91506134f9826134b8565b602082019050919050565b6000602082019050818103600083015261351d816134e1565b905091905056fea2646970667358221220a69c9673897dff347fb4c85016bc0639b96d70f66e54a92cccf0f29ce18f83fb64736f6c63430008130033",
    "linkReferences": {},
    "deployedLinkReferences": {}
}